:100000000C9434000C9451000C9451000C94510049
:100010000C9451000C9451000C9451000C9451001C
:100020000C9451000C9451000C9451000C9451000C
:100030000C9451000C9451000C9451000C945100FC
:100040000C9453000C9451000C9451000C945100EA
:100050000C9451000C9451000C9451000C945100DC
:100060000C9451000C94510011241FBECFEFD8E026
:10007000DEBFCDBF13E0A0E0B1E0E0EEF3E002C0F0
:1000800005900D92A030B107D9F725E0A0E0B3E0CC
:1000900001C01D92AB30B207E1F70E949D000C94A5
:1000A000EE010C9400001F920F920FB60F921124D4
:1000B0002F933F938F939F93AF93BF9380910705A7
:1000C00090910805A0910905B0910A0530910605A7
:1000D00023E0230F2D3720F40196A11DB11D05C08B
:1000E00026E8230F0296A11DB11D209306058093DB
:1000F000070590930805A0930905B0930A05809120
:10010000020590910305A0910405B09105050196A3
:10011000A11DB11D8093020590930305A0930405D2
:10012000B0930505BF91AF919F918F913F912F9112
:100130000F900FBE0F901F901895789484B5826031
:1001400084BD84B5816084BD85B5826085BD85B57B
:10015000816085BD80916E00816080936E001092F9
:100160008100809181008260809381008091810074
:100170008160809381008091800081608093800005
:100180008091B10084608093B1008091B000816063
:100190008093B00080917A00846080937A0080918F
:1001A0007A00826080937A0080917A0081608093E7
:1001B0007A0080917A00806880937A001092C10062
:1001C000E0E14E2E512C66246394712C00E013E084
:1001D00070E0A72E71E0B72E812C912CC4010197FD
:1001E000B2010E94C601C0E0D0E0E0E0F0E07C0196
:1001F00084E0EE0CFF1C8A95E1F714018FEF281ABA
:10020000380A61019FE0C922DD2494E0CC0CDD1C9A
:100210009A95E1F724E0880C991C2A95E1F7D7011B
:10022000AE0FBF1FAA0FBB1FA050BF4F91E080E0D1
:100230002D913C912130310509F090E0292F382F84
:10024000D601AE0FBF1FAA0FBB1FA050BF4F8D918D
:100250009C91019711F42F5F3F4FCF010197B2019D
:100260000E94C601D401A80FB91FAA0FBB1FA0503E
:10027000BF4F4D915C914130510511F42F5F3F4FBD
:100280003196AF014F705527D401A40FB51FAA0FA7
:10029000BB1FA050BF4F6D917C916130710511F46F
:1002A0002F5F3F4FD701A80FB91FAA0FBB1FA05048
:1002B000BF4F6D917C916130710511F42F5F3F4FFD
:1002C000D601A80FB91FAA0FBB1FA050BF4F8D9119
:1002D0009C91019711F42F5F3F4FD701A40FB51FD9
:1002E000AA0FBB1FA050BF4F8D919C91019711F495
:1002F0002F5F3F4FD601A40FB51FAA0FBB1FA05001
:10030000BF4F8D919C91019711F42F5F3F4FD50105
:10031000AC0FBD1F8D919C918130910549F4223025
:10032000310564F5D801AC0FBD1F1D921C9229C088
:10033000892B41F42330310529F4D801AC0FBD1FBE
:100340006D927C922296E031F10509F068CF41016F
:10035000005E1F4F80E2A80EB11C90E12916310407
:1003600009F03CCF80E090E0892B09F42FCF309347
:100370000105209300050E94000028CF243031059C
:100380008CF6C90102970297E8F6D7CF97FB072EA4
:1003900016F4009407D077FD09D00E94DA0107FC1B
:1003A00005D03EF4909581959F4F08957095619585
:1003B0007F4F0895AA1BBB1B51E107C0AA1FBB1F9B
:1003C000A617B70710F0A61BB70B881F991F5A95E1
:1003D000A9F780959095BC01CD010895F894FFCFC1
:1003E000000000000100000000000000000000000C
:1003F00000000000000000000000000000000000FD
:1004000001000000010000000000000000000000EA
:1004100000000000000000000000000000000000DC
:1004200000000100010000000000000000000000CA
:1004300000000000000000000000000000000000BC
:1004400000000000000000000000000000000000AC
:10045000000000000000000000000000000000009C
:10046000000000000000000000000000000000008C
:10047000000000000000000000000000000000007C
:10048000000000000000000000000000000000006C
:10049000000000000000000000000000000000005C
:1004A000000000000000000000000000000000004C
:1004B000000000000000000000000000000000003C
:1004C000000000000000000000000000000000002C
:1004D000000000000000000000000000000000001C
:1004E000000000000000000000000000000000000C
:1004F00000000000000000000000000000000000FC
:1005000000000000000000000000000000000000EB
:1005100000000000000000000000000000000000DB
:1005200000000000000000000000000000000000CB
:1005300000000000000000000000000000000000BB
:1005400000000000000000000000000000000000AB
:10055000000000000000000000000000000000009B
:10056000000000000000000000000000000000008B
:10057000000000000000000000000000000000007B
:10058000000000000000000000000000000000006B
:10059000000000000000000000000000000000005B
:1005A000000000000000000000000000000000004B
:1005B000000000000000000000000000000000003B
:1005C000000000000000000000000000000000002B
:1005D000000000000000000000000000000000001B
:107E0000112484B714BE81FFF0D085E080938100F7
:107E100082E08093C00088E18093C10086E0809377
:107E2000C20080E18093C4008EE0C9D0259A86E02C
:107E300020E33CEF91E0309385002093840096BBD3
:107E4000B09BFECF1D9AA8958150A9F7CC24DD24C4
:107E500088248394B5E0AB2EA1E19A2EF3E0BF2EE7
:107E6000A2D0813461F49FD0082FAFD0023811F036
:107E7000013811F484E001C083E08DD089C08234E0
:107E800011F484E103C0853419F485E0A6D080C0E4
:107E9000853579F488D0E82EFF2485D0082F10E0AE
:107EA000102F00270E291F29000F111F8ED06801E7
:107EB0006FC0863521F484E090D080E0DECF843638
:107EC00009F040C070D06FD0082F6DD080E0C81688
:107ED00080E7D80618F4F601B7BEE895C0E0D1E017
:107EE00062D089930C17E1F7F0E0CF16F0E7DF06D8
:107EF00018F0F601B7BEE89568D007B600FCFDCFD4
:107F0000A601A0E0B1E02C9130E011968C91119780
:107F100090E0982F8827822B932B1296FA010C0160
:107F200087BEE89511244E5F5F4FF1E0A038BF0790
:107F300051F7F601A7BEE89507B600FCFDCF97BE46
:107F4000E89526C08437B1F42ED02DD0F82E2BD052
:107F50003CD0F601EF2C8F010F5F1F4F84911BD097
:107F6000EA94F801C1F70894C11CD11CFA94CF0C13
:107F7000D11C0EC0853739F428D08EE10CD085E9AC
:107F80000AD08FE07ACF813511F488E018D01DD067
:107F900080E101D065CF982F8091C00085FFFCCF94
:107FA0009093C60008958091C00087FFFCCF809118
:107FB000C00084FD01C0A8958091C6000895E0E648
:107FC000F0E098E1908380830895EDDF803219F02E
:107FD00088E0F5DFFFCF84E1DECF1F93182FE3DFCA
:107FE0001150E9F7F2DF1F91089580E0E8DFEE27F6
:047FF000FF270994CA
:027FFE00040479
:0400000300007E007B
:00000001FF
